:020000040000FA
:100000000C945E000C9486000C9486000C94860080
:100010000C9486000C9486000C9486000C94860048
:100020000C9486000C9486000C9486000C94860038
:100030000C9486000C9486000C9486000C94860028
:100040000C948F040C9486000C945D040C9437047B
:100050000C9486000C9486000C9486000C94860008
:100060000C9486000C9486000000000024002700F9
:100070002A0000000000250028002B0004040404CE
:100080000404040402020202020203030303030342
:10009000010204081020408001020408102001021F
:1000A00004081020000000080002010000030407FB
:1000B0000000000000000000D904C20711241FBE88
:1000C000CFEFD8E0DEBFCDBF22E0A4EEB1E001C0AB
:1000D0001D92A33BB207E1F711E0A0E0B1E0E4E03C
:1000E000F4E102C005900D92A43EB107D9F710E0EB
:1000F000CDE5D0E004C02197FE010E94FD07CC357C
:10010000D107C9F70E9432050C94F5090C94000040
:100110000895AF92BF92CF92DF92EF92FF920F932A
:100120001F93CF93DF936C017B018B01040F151F8D
:10013000EB015E01AE18BF08C017D10759F06991F5
:10014000D601ED91FC910190F081E02DC601099559
:10015000892B79F7C501DF91CF911F910F91FF9006
:10016000EF90DF90CF90BF90AF900895FC01538D3A
:10017000448D252F30E0842F90E0821B930B541781
:1001800010F0CF96089501970895FC01918D828D0E
:10019000981761F0A28DAE0FBF2FB11D5D968C91A7
:1001A000928D9F5F9F73928F90E008958FEF9FEFE6
:1001B0000895FC01918D828D981731F0828DE80FA2
:1001C000F11D858D90E008958FEF9FEF0895FC015C
:1001D000918D228D892F90E0805C9F4F821B910929
:1001E0008F739927089584EF91E00E94E70021E042
:1001F000892B09F420E0822F089580E090E0892B7C
:1002000029F00E94F30081110C9400000895FC0174
:10021000A48DA80FB92FB11DA35ABF4F2C91848D67
:1002200090E001968F739927848FA689B7892C93C4
:10023000A089B1898C91837080648C93938D848D17
:10024000981306C00288F389E02D80818F7D80831A
:100250000895EF92FF920F931F93CF93DF93EC01DA
:1002600081E0888F9B8D8C8D98131AC0E889F9895D
:10027000808185FF15C09FB7F894EE89FF89608360
:10028000E889F98980818370806480839FBF81E0E1
:1002900090E0DF91CF911F910F91FF90EF90089523
:1002A000F62E0B8D10E00F5F1F4F0F731127E02EFE
:1002B0008C8D8E110CC00FB607FCFACFE889F98936
:1002C000808185FFF5CFCE010E940701F1CFEB8D34
:1002D000EC0FFD2FF11DE35AFF4FF0829FB7F8940A
:1002E0000B8FEA89FB8980818062CFCFCF93DF9328
:1002F000EC01888D8823B9F0AA89BB89E889F9893E
:100300008C9185FD03C0808186FD0DC00FB607FC72
:10031000F7CF8C9185FFF2CF808185FFEDCFCE01A5
:100320000E940701E9CFDF91CF91089590E0FC0191
:10033000EC55FF4F2491FC01E057FF4F3491FC0135
:10034000E458FF4FE491EE23C9F0222339F0233023
:1003500001F1A8F4213019F1223029F1F0E0EE0F7B
:10036000FF1FEE58FF4FA591B4918FB7F894EC9111
:10037000611126C030953E233C938FBF08952730EE
:10038000A9F02830C9F0243049F7809180008F7D92
:1003900003C0809180008F7780938000DFCF84B589
:1003A0008F7784BDDBCF84B58F7DFBCF8091B0008C
:1003B0008F778093B000D2CF8091B0008F7DF9CF3E
:1003C0003E2BDACFCF93DF9390E0FC01E057FF4F55
:1003D000249184589F4FFC0184918823D1F090E0B0
:1003E000880F991FFC01E859FF4FA591B491FC01BA
:1003F000EE58FF4FC591D49161110EC09FB7F8948C
:100400008C91E22FE0958E238C932881E223E88360
:100410009FBFDF91CF9108958FB7F894EC91E22BB5
:10042000EC938FBFF6CF3FB7F8948091E90190919C
:10043000EA01A091EB01B091EC0126B5A89B05C0A3
:100440002F3F19F00196A11DB11D3FBFBA2FA92F53
:10045000982F8827BC01CD01620F711D811D911D50
:1004600042E0660F771F881F991F4A95D1F70895BC
:100470008F929F92AF92BF92CF92DF92EF92FF92B4
:100480004B015C010E9413026B017C010E9413026C
:100490006C197D098E099F09683E7340810591059D
:1004A000A8F321E0821A9108A108B10888EEC80ECD
:1004B00083E0D81EE11CF11C81149104A104B10455
:1004C00029F7FF90EF90DF90CF90BF90AF909F9073
:1004D0008F90089590E080E0089561E08AE00E94A6
:1004E000960160E08BE00E94960168EE73E080E088
:1004F00090E00C943802CF93DF93EC0160E08E81A2
:100500000E94960161E08E810E94960160E08E81DA
:100510000E9496018BE891E00197F1F7DF91CF916E
:100520000895CF92DF92EF92FF920F931F93CF9394
:10053000DF936C017C0187E0E80EF11CD0E0C0E0A5
:10054000062F10E0B8010C2E02C0759567950A942D
:10055000E2F76170F70181917F010E949601219677
:10056000C430D10579F7C601DF91CF911F910F916A
:10057000FF90EF90DF90CF900C947B02CF92DF92B0
:10058000EF92FF920F931F93CF93DF93EC01F62E20
:10059000642F8C810E9496018D818F3F19F060E05D
:1005A0000E9496010F2D10E08F8584FF25C06E01FB
:1005B00087E0C80ED11CF12CE12CB8010E2C02C032
:1005C000759567950A94E2F76170F60181916F0164
:1005D0000E949601FFEFEF1AFF0A88E0E816F10487
:1005E00061F7CE01DF91CF911F910F91FF90EF90B6
:1005F000DF90CF900C947B02B80184E075956795ED
:100600008A95E1F7CE010E9491026F2DCE01DF9114
:10061000CF911F910F91FF90EF90DF90CF900C94AE
:10062000910240E0682F87E992E00C94BE0281E0DD
:100630000E9411038BE39FE10197F1F70895CF9397
:10064000DF93823029F49091A60298609093A602DD
:100650008093AA021092AB0280E48093AC0280E106
:100660008093AD0280E58093AE0261E080919B02B1
:100670000E94E20180919C028F3F19F061E00E948C
:10068000E20161E080919D020E94E201C7E9D2E0AF
:100690009E01275932408091A60284FD0BC084E060
:1006A00090E021962817390744F461E08E810E947A
:1006B000E201EECF88E090E0F4CF8BE39DE001977C
:1006C000F1F760E080919B020E94960160E08091CA
:1006D0009D020E94960180919C028F3F19F060E07C
:1006E0000E9496018091A60284FD34C063E087E9F0
:1006F00092E00E949102CBE4D6E4CE010197F1F79B
:1007000063E087E992E00E9491022197F1F763E0AC
:1007100087E992E00E94910283E592E00197F1F768
:1007200062E087E992E00E9491028091A6028062D5
:100730000E94110384E08093A7028CE00E941103C1
:100740000E94170382E08093A80286E0DF91CF9198
:100750000C94110380620E9411038BE496E40197CC
:10076000F1F78091A60280620E94110383E592E076
:100770000197F1F78091A60280620E941103D5CF04
:100780009091AA02691710F06FEF690FE62FF0E061
:10079000E956FD4F9489890F80680C94110341E05C
:1007A0000E94BE0281E090E00895FC0101900020CB
:1007B000E9F73197AF01481B590BBC0187E992E07B
:1007C0000C948900CF93DF930E94D503EC0184E25F
:1007D00091E00E94D5038C0F9D1FDF91CF9108956A
:1007E000FC0180819181009711F00C949F0808957D
:1007F000EF92FF920F931F93CF93DF93EC017B0156
:100800008A0188819981009729F02A813B812417E8
:10081000350788F4B8016F5F7F4F0E942809009761
:1008200091F0998388831B830A832C813D81232B3C
:1008300011F4FC0110821D830C83B701888199811A
:100840000E94EE090CC088819981009711F00E94E6
:100850009F08198218821D821C821B821A82CE0177
:10086000DF91CF911F910F91FF90EF9008951F920C
:100870000F920FB60F9211242F933F934F935F93D4
:100880006F937F938F939F93AF93BF93EF93FF9358
:1008900084EF91E00E940701FF91EF91BF91AF912A
:1008A0009F918F917F916F915F914F913F912F9188
:1008B0000F900FBE0F901F9018951F920F920FB6BA
:1008C0000F9211242F938F939F93EF93FF93E091B7
:1008D0000402F09105028081E0910A02F0910B027E
:1008E00082FD1BC0908180910D028F5F8F732091DC
:1008F0000E02821741F0E0910D02F0E0EC50FE4F45
:10090000958F80930D02FF91EF919F918F912F9181
:100910000F900FBE0F901F9018958081F4CF1F92FB
:100920000F920FB60F9211242F933F938F939F93A3
:10093000AF93BF938091E5019091E601A091E7010B
:10094000B091E8013091E40123E0230F2D3758F5F1
:100950000196A11DB11D2093E4018093E5019093C0
:10096000E601A093E701B093E8018091E90190913D
:10097000EA01A091EB01B091EC010196A11DB11D1E
:100980008093E9019093EA01A093EB01B093EC010D
:10099000BF91AF919F918F913F912F910F900FBE7B
:1009A0000F901F90189526E8230F0296A11DB11DE8
:1009B000D2CFE4EFF1E01382128288EE93E0A0E060
:1009C000B0E084839583A683B7838AE091E0918326
:1009D000808385EC90E09587848784EC90E097870E
:1009E000868780EC90E0918B808B81EC90E0938BFC
:1009F000828B82EC90E0958B848B86EC90E0978BD9
:100A0000868B118E128E138E148EE7E9F2E013821C
:100A100012828CE191E09183808382E184838FEF65
:100A2000858383E1868381E1878380E180878FE00E
:100A300081878EE082871386148615861686178630
:100A400081E00E941F03E1E9F2E01182108213822B
:100A500012821582148244E050E067E271E0CF0117
:100A60000C94F803CF93DF93CDB7DEB76A970FB638
:100A7000F894DEBF0FBECDBF789484B5826084BD8C
:100A800084B5816084BD85B5826085BD85B5816092
:100A900085BD80916E00816080936E001092810010
:100AA00080918100826080938100809181008160CB
:100AB000809381008091800081608093800080918C
:100AC000B10084608093B1008091B0008160809318
:100AD000B00080917A00846080937A0080917A00DF
:100AE000826080937A0080917A00816080937A009E
:100AF00080917A00806880937A001092C100E09122
:100B00000402F091050282E08083E0910002F091FE
:100B100001021082E0910202F09103028FEC8083C7
:100B200010920C02E0910802F091090286E08083A5
:100B3000E0910602F0910702808180618083E0915C
:100B40000602F0910702808188608083E0910602AE
:100B5000F0910702808180688083E0910602F09125
:100B6000070280818F7D808360E084E10E94E20142
:100B700061E086E00E94E20161E087E00E94E2011C
:100B800061E08AE00E94E20161E08BE00E94E20104
:100B900061E08CE00E94E20182E00E941F0360E0BD
:100BA00080E00E94C0038CE291E00E94E20368EBC7
:100BB0007BE080E090E00E94380260E080E00E94EC
:100BC000C0038BE391E00E94E20361E080E00E94B9
:100BD000C00387E491E00E94E20368EB7BE080E0E1
:100BE00090E00E94380260E080E00E94C00383E54C
:100BF00091E00E94E20361E080E00E94C00380E691
:100C000091E00E94E20368EB7BE080E090E00E94CC
:100C100038020E9417037E0183E1E80EF11C6E0189
:100C2000E9E1CE0ED11C86E0782E84EF91E00E949F
:100C3000C500813609F099C184EF91E00E94C5009A
:100C40008337910509F491C10E9417038EE691E064
:100C50000E94D50364E670E080E090E00E943802D4
:100C600084EF91E00E94C500982E8E010F5F1F4F08
:100C70005801F801118210821382128215821482A7
:100C800050E040E066E271E0C8010E94F8030A5FAC
:100C90001F4F0E151F0569F7992009F495C00E9492
:100CA00017038EE691E00E94D5030091F2011091A6
:100CB000F30162E0802F0E94C00341E0692D87E9C3
:100CC00092E00E94BE0264EF71E080E090E00E943A
:100CD0003802FAE29F1619F083E2981281C010924E
:100CE000F3011092F2010E946D020E94170380919D
:100CF000F2019091F301039709F066C08091F00131
:100D00009091F101181619060CF0F9C08091EE01CE
:100D10009091EF0101969093EF018093EE01109274
:100D2000F1011092F0011092F3011092F2010E9471
:100D3000170362E080E00E94C0038AE791E00E940E
:100D4000D50368EE73E080E090E00E9438020E94D4
:100D50006D028091EE019091EF010397A9F5109239
:100D6000EF011092EE010E94170361E080E00E9403
:100D7000C0038BEB91E00E94D50362E080E00E940B
:100D8000C00380ED91E00E94D5030AE010E061E02D
:100D90008CE00E94960168EE73E080E090E00E9493
:100DA000380260E08CE00E94960168EE73E080E01B
:100DB00090E00E9438020150110949F764EF71E098
:100DC00080E090E00E943802CE010D960E94F00370
:100DD000CE0107960E94F003C5010E94F0032CCFBC
:100DE00080919502909196020817190738F4E091C6
:100DF0009102F0919202309709F046C01092ED01F5
:100E0000EDEEF1E0208192125CC01C8A1B8A1E8AE2
:100E10001D8A188E1F8A998E1A8EF6010190002065
:100E2000E9F73197AF014C195D09B601C7010E947E
:100E3000F803709E4001719E900C11248A0C9B1C3B
:100E4000F40180819181009721F16B897C89611582
:100E50007105E9F0428153812F89388D421753077C
:100E6000B0F00E94EE098F89988DF40195838483F8
:100E7000188E1F8AC7010E94F0030F5F1F4F109347
:100E8000F3010093F20133CFE00FF11FBBCF0E94BB
:100E90009F08709EF001719EF00D1124EA0DFB1D5C
:100EA0008B899C89918380838D899E89938382839A
:100EB0008F89988D958384831C8A1B8A1E8A1D8A3C
:100EC000D7CF0817190730F4E0919102F091920200
:100ED000309791F41092ED01EDEEF1E080819816DB
:100EE00009F405CF8091F0019091F1010196909362
:100EF000F1018093F001C1CFE00FF11FEFCF892BFB
:100F000009F027CF1092F3011092F2010E9417030B
:100F100061E080E00E94C00384E991E00E94D50373
:100F200062E085E00E94C0038BEA91E00E94D50355
:100F300060ED77E080E090E00E94380260E08AE0B7
:100F40000E94960161E08BE00E94960160ED77E0DF
:100F500080E090E00E94380261E08AE00E94960101
:100F600060E08BE00E949601F4CE80E090E0892B57
:100F700009F45BCE0E94F300882309F454CE0E944A
:100F8000000051CE81E992E00C94F0032F923F9241
:100F90004F925F926F927F928F929F92AF92BF9289
:100FA000CF92DF92EF92FF920F931F93CF93DF9335
:100FB000CDB7DEB7CA1BDB0B0FB6F894DEBF0FBE92
:100FC000CDBF09942A88398848885F846E847D84DF
:100FD0008C849B84AA84B984C884DF80EE80FD80E1
:100FE0000C811B81AA81B981CE0FD11D0FB6F89457
:100FF000DEBF0FBECDBFED010895EE0FFF1F0590C0
:10100000F491E02D09940F931F93CF93DF938230D7
:10101000910510F482E090E0E091B102F091B2020B
:1010200030E020E0B0E0A0E0309799F421153105E0
:1010300009F44AC0281B390B24303105D8F58A81C0
:101040009B816115710589F1FB0193838283FE0108
:1010500011C0408151810281138148175907E0F086
:101060004817590799F4109761F012960C9312974C
:1010700013961C933296CF01DF91CF911F910F9160
:1010800008950093B1021093B202F4CF21153105F7
:1010900051F04217530738F0A901DB019A01BD0155
:1010A000DF01F801C1CFEF01F9CF9093B202809335
:1010B000B102CDCFFE01E20FF31F81939193225035
:1010C000310939832883D7CF2091AF023091B00204
:1010D000232B41F420910201309103013093B0029F
:1010E0002093AF02209100013091010121153105BB
:1010F00041F42DB73EB74091040150910501241BE6
:10110000350BE091AF02F091B002E217F307A0F4C3
:101110002E1B3F0B2817390778F0AC014E5F5F4F4D
:101120002417350748F04E0F5F1F5093B0024093CD
:10113000AF02819391939FCFF0E0E0E09CCFCF93FB
:10114000DF930097E9F0FC01329713821282A0919D
:10115000B102B091B202ED0130E020E01097A1F4AD
:1011600020813181820F931F2091AF023091B00214
:101170002817390709F061C0F093B002E093AF027D
:10118000DF91CF910895EA01CE17DF07E8F54A8194
:101190005B819E0141155105B1F7E901FB83EA83AB
:1011A00049915991C40FD51FEC17FD0761F4808157
:1011B00091810296840F951FE9019983888382812A
:1011C00093819B838A83F0E0E0E012968D919C915D
:1011D00013970097B9F52D913C911197CD01029687
:1011E000820F931F2091AF023091B0022817390768
:1011F00039F6309751F51092B2021092B102B093C5
:10120000B002A093AF02BCCFD383C283408151818F
:10121000840F951FC817D90761F44E5F5F4F88810F
:101220009981480F591F518340838A819B81938301
:1012300082832115310509F0B0CFF093B202E0931B
:10124000B1029ECFFD01DC01C0CF13821282D7CF45
:10125000B0E0A0E0EEE2F9E00C94C8078C01009742
:1012600051F4CB010E9403088C01C801CDB7DEB751
:10127000E0E10C94E407FC01E60FF71F9C0122500B
:101280003109E217F30708F49DC0D901CD91DC9133
:101290001197C617D70798F0C530D10530F3CE01A6
:1012A00004978617970708F3C61BD70B2297C1939D
:1012B000D1936D937C93CF010E949F08D6CF5B01A1
:1012C000AC1ABD0A4C018C0E9D1EA091B102B091CA
:1012D000B202512C412CF12CE12C109731F5809168
:1012E000AF029091B0028815990509F05CC04616CE
:1012F000570608F058C080910001909101010097B5
:1013000041F48DB79EB74091040150910501841BB3
:10131000950BE817F90708F055C0F093B002E09379
:10132000AF02F90171836083A0CF8D919C911197D9
:1013300012966C90129713967C901397A815B90586
:1013400059F56C0142E0C40ED11CCA14DB0420F133
:10135000AC014A195B09DA011296159780F0628296
:10136000738251834083D9016D937C93E114F1041E
:1013700071F0D7011396FC93EE93129776CF2296D5
:101380008C0F9D1FF90191838083F301EFCFF093C0
:10139000B202E093B10269CF4816590608F42C0155
:1013A0007D01D3019ACFCB010E9403087C010097F5
:1013B00049F0AE01B8010E94E509C8010E949F08EA
:1013C000870153CF10E000E050CFFB01DC0102C0E9
:1013D00001900D9241505040D8F70895FB01DC0177
:1013E00001900D920020E1F7089510E0CDE5D0E0E6
:1013F00004C0FE010E94FD072196CE35D107C9F732
:10140000F894FFCF0000B302800000000000290123
:101410008900B6007601E700C500D9000000000091
:10142000CF0389006A0288000D0A0031323334008C
:101430002A4249454E56454E49444F21212A002A09
:10144000494E54524F445543452A002A454C2043A7
:101450004F4449474F2A002A5041524120414252AD
:1014600049522A002A4C41205055455254412121CD
:101470002A002050617373776F72643A2000202035
:10148000202041636365736F2044656E6567616406
:101490006F212020202020002020202020204269B1
:1014A000656E76656E69646F212020202020002003
:1014B00050756572746120416269657274610020C3
:1014C00020202050454C4947524F202021212121E6
:1014D0002020200020202041434345534F204445F5
:0814E0004E454741444F000056
:107E0000112484B714BE81FFF0D085E080938100F7
:107E100082E08093C00088E18093C10086E0809377
:107E2000C20080E18093C4008EE0C9D0259A86E02C
:107E300020E33CEF91E0309385002093840096BBD3
:107E4000B09BFECF1D9AA8958150A9F7CC24DD24C4
:107E500088248394B5E0AB2EA1E19A2EF3E0BF2EE7
:107E6000A2D0813461F49FD0082FAFD0023811F036
:107E7000013811F484E001C083E08DD089C08234E0
:107E800011F484E103C0853419F485E0A6D080C0E4
:107E9000853579F488D0E82EFF2485D0082F10E0AE
:107EA000102F00270E291F29000F111F8ED06801E7
:107EB0006FC0863521F484E090D080E0DECF843638
:107EC00009F040C070D06FD0082F6DD080E0C81688
:107ED00080E7D80618F4F601B7BEE895C0E0D1E017
:107EE00062D089930C17E1F7F0E0CF16F0E7DF06D8
:107EF00018F0F601B7BEE89568D007B600FCFDCFD4
:107F0000A601A0E0B1E02C9130E011968C91119780
:107F100090E0982F8827822B932B1296FA010C0160
:107F200087BEE89511244E5F5F4FF1E0A038BF0790
:107F300051F7F601A7BEE89507B600FCFDCF97BE46
:107F4000E89526C08437B1F42ED02DD0F82E2BD052
:107F50003CD0F601EF2C8F010F5F1F4F84911BD097
:107F6000EA94F801C1F70894C11CD11CFA94CF0C13
:107F7000D11C0EC0853739F428D08EE10CD085E9AC
:107F80000AD08FE07ACF813511F488E018D01DD067
:107F900080E101D065CF982F8091C00085FFFCCF94
:107FA0009093C60008958091C00087FFFCCF809118
:107FB000C00084FD01C0A8958091C6000895E0E648
:107FC000F0E098E1908380830895EDDF803219F02E
:107FD00088E0F5DFFFCF84E1DECF1F93182FE3DFCA
:107FE0001150E9F7F2DF1F91089580E0E8DFEE27F6
:047FF000FF270994CA
:027FFE00040479
:00000001FF
